{
  "_format": "hh3-artifact-1",
  "contractName": "AIBountyJudgePro",
  "sourceName": "contracts/AIBountyJudgePro.sol",
  "abi": [
    {
      "inputs": [],
      "stateMutability": "nonpayable",
      "type": "constructor"
    },
    {
      "anonymous": false,
      "inputs": [
        {
          "indexed": true,
          "internalType": "uint256",
          "name": "bountyId",
          "type": "uint256"
        },
        {
          "indexed": false,
          "internalType": "bytes",
          "name": "aiReview",
          "type": "bytes"
        },
        {
          "indexed": false,
          "internalType": "uint256",
          "name": "timestamp",
          "type": "uint256"
        }
      ],
      "name": "AllAnswersJudged",
      "type": "event"
    },
    {
      "anonymous": false,
      "inputs": [
        {
          "indexed": true,
          "internalType": "uint256",
          "name": "bountyId",
          "type": "uint256"
        },
        {
          "indexed": true,
          "internalType": "uint256",
          "name": "submissionIndex",
          "type": "uint256"
        },
        {
          "indexed": true,
          "internalType": "address",
          "name": "submitter",
          "type": "address"
        },
        {
          "indexed": false,
          "internalType": "uint256",
          "name": "timestamp",
          "type": "uint256"
        }
      ],
      "name": "AnswerSubmitted",
      "type": "event"
    },
    {
      "anonymous": false,
      "inputs": [
        {
          "indexed": true,
          "internalType": "uint256",
          "name": "bountyId",
          "type": "uint256"
        },
        {
          "indexed": true,
          "internalType": "address",
          "name": "owner",
          "type": "address"
        },
        {
          "indexed": false,
          "internalType": "string",
          "name": "title",
          "type": "string"
        },
        {
          "indexed": false,
          "internalType": "string",
          "name": "category",
          "type": "string"
        },
        {
          "indexed": false,
          "internalType": "uint256",
          "name": "reward",
          "type": "uint256"
        },
        {
          "indexed": false,
          "internalType": "uint256",
          "name": "deadline",
          "type": "uint256"
        }
      ],
      "name": "BountyCreated",
      "type": "event"
    },
    {
      "anonymous": false,
      "inputs": [
        {
          "indexed": true,
          "internalType": "uint256",
          "name": "bountyId",
          "type": "uint256"
        },
        {
          "indexed": true,
          "internalType": "uint256",
          "name": "winnerIndex",
          "type": "uint256"
        },
        {
          "indexed": true,
          "internalType": "address",
          "name": "winner",
          "type": "address"
        },
        {
          "indexed": false,
          "internalType": "uint256",
          "name": "reward",
          "type": "uint256"
        },
        {
          "indexed": false,
          "internalType": "uint256",
          "name": "timestamp",
          "type": "uint256"
        }
      ],
      "name": "WinnerFinalized",
      "type": "event"
    },
    {
      "inputs": [],
      "name": "CONTRACT_VERSION",
      "outputs": [
        {
          "internalType": "string",
          "name": "",
          "type": "string"
        }
      ],
      "stateMutability": "view",
      "type": "function"
    },
    {
      "inputs": [],
      "name": "MAX_ANSWER_LENGTH",
      "outputs": [
        {
          "internalType": "uint256",
          "name": "",
          "type": "uint256"
        }
      ],
      "stateMutability": "view",
      "type": "function"
    },
    {
      "inputs": [],
      "name": "MAX_SUBMISSIONS",
      "outputs": [
        {
          "internalType": "uint256",
          "name": "",
          "type": "uint256"
        }
      ],
      "stateMutability": "view",
      "type": "function"
    },
    {
      "inputs": [
        {
          "internalType": "uint256",
          "name": "",
          "type": "uint256"
        }
      ],
      "name": "bounties",
      "outputs": [
        {
          "internalType": "address",
          "name": "owner",
          "type": "address"
        },
        {
          "internalType": "string",
          "name": "title",
          "type": "string"
        },
        {
          "internalType": "string",
          "name": "rubric",
          "type": "string"
        },
        {
          "internalType": "string",
          "name": "category",
          "type": "string"
        },
        {
          "internalType": "uint256",
          "name": "reward",
          "type": "uint256"
        },
        {
          "internalType": "uint256",
          "name": "deadline",
          "type": "uint256"
        },
        {
          "internalType": "bool",
          "name": "judged",
          "type": "bool"
        },
        {
          "internalType": "bool",
          "name": "finalized",
          "type": "bool"
        },
        {
          "internalType": "bytes",
          "name": "aiReview",
          "type": "bytes"
        },
        {
          "internalType": "uint256",
          "name": "winnerIndex",
          "type": "uint256"
        }
      ],
      "stateMutability": "view",
      "type": "function"
    },
    {
      "inputs": [
        {
          "internalType": "string",
          "name": "title",
          "type": "string"
        },
        {
          "internalType": "string",
          "name": "rubric",
          "type": "string"
        },
        {
          "internalType": "string",
          "name": "category",
          "type": "string"
        },
        {
          "internalType": "uint256",
          "name": "deadline",
          "type": "uint256"
        }
      ],
      "name": "createBounty",
      "outputs": [
        {
          "internalType": "uint256",
          "name": "bountyId",
          "type": "uint256"
        }
      ],
      "stateMutability": "payable",
      "type": "function"
    },
    {
      "inputs": [],
      "name": "deployer",
      "outputs": [
        {
          "internalType": "address",
          "name": "",
          "type": "address"
        }
      ],
      "stateMutability": "view",
      "type": "function"
    },
    {
      "inputs": [
        {
          "internalType": "uint256",
          "name": "bountyId",
          "type": "uint256"
        },
        {
          "internalType": "uint256",
          "name": "winnerIndex",
          "type": "uint256"
        }
      ],
      "name": "finalizeWinner",
      "outputs": [],
      "stateMutability": "nonpayable",
      "type": "function"
    },
    {
      "inputs": [
        {
          "internalType": "uint256",
          "name": "bountyId",
          "type": "uint256"
        }
      ],
      "name": "getBounty",
      "outputs": [
        {
          "internalType": "address",
          "name": "owner",
          "type": "address"
        },
        {
          "internalType": "string",
          "name": "title",
          "type": "string"
        },
        {
          "internalType": "string",
          "name": "rubric",
          "type": "string"
        },
        {
          "internalType": "string",
          "name": "category",
          "type": "string"
        },
        {
          "internalType": "uint256",
          "name": "reward",
          "type": "uint256"
        },
        {
          "internalType": "uint256",
          "name": "deadline",
          "type": "uint256"
        },
        {
          "internalType": "bool",
          "name": "judged",
          "type": "bool"
        },
        {
          "internalType": "bool",
          "name": "finalized",
          "type": "bool"
        },
        {
          "internalType": "uint256",
          "name": "submissionCount",
          "type": "uint256"
        },
        {
          "internalType": "uint256",
          "name": "winnerIndex",
          "type": "uint256"
        },
        {
          "internalType": "bytes",
          "name": "aiReview",
          "type": "bytes"
        }
      ],
      "stateMutability": "view",
      "type": "function"
    },
    {
      "inputs": [],
      "name": "getContractInfo",
      "outputs": [
        {
          "internalType": "string",
          "name": "version",
          "type": "string"
        },
        {
          "internalType": "address",
          "name": "deployerAddr",
          "type": "address"
        },
        {
          "internalType": "uint256",
          "name": "totalBounties",
          "type": "uint256"
        }
      ],
      "stateMutability": "view",
      "type": "function"
    },
    {
      "inputs": [
        {
          "internalType": "uint256",
          "name": "bountyId",
          "type": "uint256"
        },
        {
          "internalType": "uint256",
          "name": "index",
          "type": "uint256"
        }
      ],
      "name": "getSubmission",
      "outputs": [
        {
          "internalType": "address",
          "name": "submitter",
          "type": "address"
        },
        {
          "internalType": "string",
          "name": "answer",
          "type": "string"
        },
        {
          "internalType": "uint256",
          "name": "submittedAt",
          "type": "uint256"
        }
      ],
      "stateMutability": "view",
      "type": "function"
    },
    {
      "inputs": [
        {
          "internalType": "uint256",
          "name": "bountyId",
          "type": "uint256"
        },
        {
          "internalType": "bytes",
          "name": "llmInput",
          "type": "bytes"
        }
      ],
      "name": "judgeAll",
      "outputs": [],
      "stateMutability": "nonpayable",
      "type": "function"
    },
    {
      "inputs": [],
      "name": "nextBountyId",
      "outputs": [
        {
          "internalType": "uint256",
          "name": "",
          "type": "uint256"
        }
      ],
      "stateMutability": "view",
      "type": "function"
    },
    {
      "inputs": [
        {
          "internalType": "uint256",
          "name": "bountyId",
          "type": "uint256"
        },
        {
          "internalType": "string",
          "name": "answer",
          "type": "string"
        }
      ],
      "name": "submitAnswer",
      "outputs": [],
      "stateMutability": "nonpayable",
      "type": "function"
    },
    {
      "inputs": [],
      "name": "wallet",
      "outputs": [
        {
          "internalType": "contract IRitualWallet",
          "name": "",
          "type": "address"
        }
      ],
      "stateMutability": "view",
      "type": "function"
    }
  ],
  "bytecode": "0x608080604052346100485760018060a01b031973b42e435c4252a5a2e7440e37b609f00c61a0c91b815f5416175f55600180553390600254161760025561151c908161004d8239f35b5f80fdfe60806040526004361015610011575f80fd5b5f3560e01c806301fa3bec146100f457806338b90333146100ef578063521eb273146100ea5780635a7722f1146100e557806360e63942146100e05780637cc1f867146100db5780638e789683146100d6578063b7ed7071146100d1578063d5f39488146100cc578063d8964ee9146100c7578063dc2f8744146100c2578063ee8c4bbf146100bd578063fd14fad4146100b85763fd3a8329146100b3575f80fd5b610be2565b610bc5565b610b04565b6109d2565b61076c565b610744565b6106b4565b61066f565b61060f565b6104b3565b610393565b61036c565b610339565b61015d565b9181601f84011215610126578235916001600160401b038311610126576020838186019501011161012657565b5f80fd5b9060406003198301126101265760043591602435906001600160401b03821161012657610159916004016100f9565b9091565b346101265761021861016e3661012a565b5f8381526003602052604090205492939192610194906001600160a01b03161515610bfe565b60096101a8855f52600360205260405f2090565b6101c860ff60068301546101be82821615610c3d565b60081c1615610c7a565b016102088154946101db600f8710610cba565b6101e96107d0851115610cff565b6101f4841515610d3d565b6101fc610288565b338152935b3691610d82565b6020830152426040830152610e34565b6040514281523392907f832050bb80e8257db24d826485588654a4075aa05759fffeaf1bbfa4c8c8ecb99080602081015b0390a4005b634e487b7160e01b5f52604160045260245ffd5b90601f801991011681019081106001600160401b0382111761028357604052565b61024e565b60405190606082018281106001600160401b0382111761028357604052565b6001600160401b03811161028357601f01601f191660200190565b60405190604082018281106001600160401b038211176102835760405260058252640312e302e360dc1b6020830152565b5f5b8381106103045750505f910152565b81810151838201526020016102f5565b9060209161032d815180928185528580860191016102f3565b601f01601f1916010190565b34610126575f366003190112610126576103686103546102c2565b604051918291602083526020830190610314565b0390f35b34610126575f366003190112610126575f546040516001600160a01b039091168152602090f35b34610126576040366003190112610126576004355f818152600360205260409020546001600160a01b0391602435916103cf9084161515610bfe565b805f5260036020526103e88360405f2054163314610f82565b7fce67a4895a1b92fc4f90dac0994c6bc81c99f0f4fbbe7186144ea41d4907491461024961041e835f52600360205260405f2090565b94600461047a61046c8760068a0161043e60ff82546101be828216610fc1565b61046160098c019161045283548510610ffe565b805461ff001916610100179055565b8160088c0155610db8565b50546001600160a01b031690565b9601955f87549755169461049d5f808080858b5af161049761103a565b50611069565b6040805191825242602083015290918291820190565b60803660031901126101265760046001600160401b038135818111610126576104df90369084016100f9565b602492919235828111610126576104f990369086016100f9565b9390926044359081116101265761051390369087016100f9565b9190946064359034156105d95760015497889661052f886110ba565b600155610544885f52600360205260405f2090565b80546001600160a01b03191633178155926105638887600187016110c8565b61057091600285016110c8565b61057e8589600385016110c8565b3490820155816005820155600801610596905f199055565b604051938493339734926105aa95876111af565b037fd00fa07781d3060308d3f5da95be7929ceef8a74a9bf989b48a216ce85f73e2591a3604051908152602090f35b60405162461bcd60e51b81526020818a0152600f60248201526e1c995dd85c99081c995c5d5a5c9959608a1b6044820152606490fd5b34610126575f366003190112610126576106276102c2565b6002546001545f19810192916001600160a01b031690831161066a5761065b92604051938493606085526060850190610314565b91602084015260408301520390f35b6110a6565b34610126575f366003190112610126576020604051600f8152f35b9392916106af9060409260018060a01b03168652606060208701526060860190610314565b930152565b34610126576040366003190112610126576001600435610368610712602435835f526003602052848060a01b03936106f38560405f2054161515610bfe565b5f526003602052600960405f200161070d81548310610ffe565b610db8565b50918254169161073860028201549161073160405180978193016108a9565b0385610262565b6040519384938461068a565b34610126575f366003190112610126576002546040516001600160a01b039091168152602090f35b346101265760077f52107c966f1a8a9ccab5cf0b7d81aa1f90693172f197edb8ca360dcbf38a921261086c61084b61085e6107a63661012a565b93919690875f5260036020526107e260018060a01b036107cd8160405f2054161515610bfe565b895f52600360205260405f2054163314610f82565b61085861083c61082d6108286108008c5f52600360205260405f2090565b94600686019961081960ff8c546101be82821615610c3d565b610201600988015415156111e6565b611475565b602080825183010191016112f4565b50905081989296919615611376565b805460ff19166001179055565b016113a6565b60405191829142908361145e565b0390a2005b90600182811c9216801561089f575b602083101461088b57565b634e487b7160e01b5f52602260045260245ffd5b91607f1691610880565b80545f93926108b782610871565b918282526020936001916001811690815f1461091b57506001146108dd575b5050505050565b90939495505f92919252835f2092845f945b83861061090757505050500101905f808080806108d6565b8054858701830152940193859082016108ef565b60ff19168685015250505090151560051b010191505f808080806108d6565b9061095561094e92604051938480926108a9565b0383610262565b565b9a99989495919361099d8c6106af999561098f6101209c986109ab966101409060018060a01b03168552806020860152840190610314565b916040818403910152610314565b8c810360608e015290610314565b9460808b015260a08a0152151560c0890152151560e0880152868203610100880152610314565b34610126576020366003190112610126576004355f52600360205260405f2060018060a01b0381541661036860405191610a1a83610a1381600188016108a9565b0384610262565b60405193610a3685610a2f81600285016108a9565b0386610262565b610a426003820161093a565b9160048201549060058301546006840154926008610a626007870161093a565b95015495604051998a9960ff808860081c169716958b610957565b979499969390610b019b999693610ab2610ace948b610ac094602061016092839260018060a01b0316815201528c0190610314565b908a820360408c0152610314565b9088820360608a0152610314565b97608087015260a0860152151560c0850152151560e0840152610100830152610120820152610140818403910152610314565b90565b34610126576020366003190112610126576004355f818152600360205260409020546001600160a01b039190610b3d9083161515610bfe565b5f52600360205260405f2090815416610368600483015492600581015492600682015460098301549060088401549260405196610b8888610b818160018a016108a9565b0389610262565b610b946002870161093a565b98610bad6007610ba660038a0161093a565b980161093a565b966040519a8b9a60ff808860081c169716958c610a7d565b34610126575f366003190112610126576020600154604051908152f35b34610126575f3660031901126101265760206040516107d08152f35b15610c0557565b60405162461bcd60e51b815260206004820152601060248201526f189bdd5b9d1e481b9bdd08199bdd5b9960821b6044820152606490fd5b15610c4457565b60405162461bcd60e51b815260206004820152600e60248201526d185b1c9958591e481a9d5919d95960921b6044820152606490fd5b15610c8157565b60405162461bcd60e51b8152602060048201526011602482015270185b1c9958591e48199a5b985b1a5e9959607a1b6044820152606490fd5b15610cc157565b60405162461bcd60e51b81526020600482015260166024820152751cdd589b5a5cdcda5bdb8818d85c081c995858da195960521b6044820152606490fd5b15610d0657565b60405162461bcd60e51b815260206004820152600f60248201526e616e7377657220746f6f206c6f6e6760881b6044820152606490fd5b15610d4457565b60405162461bcd60e51b8152602060048201526016602482015275616e737765722063616e6e6f7420626520656d70747960501b6044820152606490fd5b929192610d8e826102a7565b91610d9c6040519384610262565b829481845281830111610126578281602093845f960137010152565b8054821015610dd1575f52600360205f20910201905f90565b634e487b7160e01b5f52603260045260245ffd5b601f8211610df257505050565b5f5260205f20906020601f840160051c83019310610e2a575b601f0160051c01905b818110610e1f575050565b5f8155600101610e14565b9091508190610e0b565b9081546801000000000000000081101561028357610e5a90600193600182018155610db8565b929092610f6f57815183546001600160a01b0319166001600160a01b039190911617835560018301906020808401518051926001600160401b03841161028357610eae84610ea88754610871565b87610de5565b602092601f8511600114610efb575050826002959360409593610ee6935f92610ef0575b50508160011b915f199060031b1c19161790565b90555b0151910155565b015190505f80610ed2565b929190601f19851690610f11875f5260205f2090565b945f915b838310610f5857505050926001928592600298966040989610610f40575b505050811b019055610ee9565b01515f1960f88460031b161c191690555f8080610f33565b848601518755958601959481019491810191610f15565b634e487b7160e01b5f525f60045260245ffd5b15610f8957565b60405162461bcd60e51b815260206004820152601060248201526f3737ba103137bab73a3c9037bbb732b960811b6044820152606490fd5b15610fc857565b60405162461bcd60e51b815260206004820152600e60248201526d1b9bdd081a9d5919d959081e595d60921b6044820152606490fd5b1561100557565b60405162461bcd60e51b815260206004820152600d60248201526c0d2dcecc2d8d2c840d2dcc8caf609b1b6044820152606490fd5b3d15611064573d9061104b826102a7565b916110596040519384610262565b82523d5f602084013e565b606090565b1561107057565b60405162461bcd60e51b815260206004820152600e60248201526d1c185e5b595b9d0819985a5b195960921b6044820152606490fd5b634e487b7160e01b5f52601160045260245ffd5b5f19811461066a5760010190565b9092916001600160401b038111610283576110ed816110e78454610871565b84610de5565b5f601f821160011461112a57819061111b9394955f9261111f5750508160011b915f199060031b1c19161790565b9055565b013590505f80610ed2565b601f1982169461113d845f5260205f2090565b915f5b87811061117757508360019596971061115e575b505050811b019055565b01355f19600384901b60f8161c191690555f8080611154565b90926020600181928686013581550194019101611140565b908060209392818452848401375f828201840152601f01601f1916010190565b9290936111ce6060956111dc949998979960808752608087019161118f565b91848303602086015261118f565b9460408201520152565b156111ed57565b60405162461bcd60e51b815260206004820152601760248201527f6e6f207375626d697373696f6e7320746f206a756467650000000000000000006044820152606490fd5b81601f82011215610126578051611248816102a7565b926112566040519485610262565b8184526020828401011161012657610b0191602080850191016102f3565b91909160608184031261012657604051906001600160401b03906060830182811184821017610283576040528294815183811161012657816112b7918401611232565b8452602082015183811161012657816112d1918401611232565b60208501526040820151928311610126576040926112ef9201611232565b910152565b9060a082820312610126578151801515810361012657926020830151906001600160401b0391828111610126578361132d918601611232565b9360408101518381116101265784611346918301611232565b936060820151848111610126578161135f918401611232565b93608083015190811161012657610b019201611274565b1561137e5750565b60405162461bcd60e51b8152602060048201529081906113a2906024830190610314565b0390fd5b91909182516001600160401b038111610283576113c7816110e78454610871565b602080601f83116001146113f85750819061111b9394955f92610ef05750508160011b915f199060031b1c19161790565b90601f1983169561140c855f5260205f2090565b925f905b8882106114465750508360019596971061142e57505050811b019055565b01515f1960f88460031b161c191690555f8080611154565b80600185968294968601518155019501930190611410565b9291906106af602091604086526040860190610314565b5f806020928381519101826108025af19061148e61103a565b91156114e057815182019060408382840193031261012657808301516001600160401b03908181116101265783836114c892870101611232565b50604084015190811161012657610b01930101611232565b81519101fdfea2646970667358221220a6e9b384eed18370414554e3dc199a81ce8797e9e0d39a32e17aa0874e69490364736f6c63430008180033",
  "linkReferences": {},
  "deployedLinkReferences": {},
  "immutableReferences": {},
  "inputSourceName": "project/contracts/AIBountyJudgePro.sol",
  "buildInfoId": "solc-0_8_24-06f41894a5cf5c6a8a57ef088d48ce81fd3b3f54"
}